:10000000EDC0000009C1000007C1000005C10000EB
:1000100003C1000001C10000FFC00000FDC00000DE
:10002000FBC00000F9C00000F7C000000C94250AD6
:10003000F3C00000F1C00000EFC00000EDC0000000
:10004000EBC00000E9C00000E7C00000E5C0000010
:10005000E3C00000E1C00000DFC00000DDC0000020
:10006000DBC00000D9C00000D7C00000D5C0000030
:10007000D3C00000D1C00000CFC00000CDC0000040
:10008000CBC00000C9C00000C7C000006E616E0098
:10009000696E66006364696E6F70737578585B652E
:1000A0006667454647006E66696E69747900616EE1
:1000B00000000020410000C84200401C4620BCBE99
:1000C0004CCA1B0E5AAEC59D74CDCCCC3D0AD7236D
:1000D0003C17B7D13877CC2B329595E6241FB14F1A
:1000E0000A00407A10F35A00A0724E18090010A5B9
:1000F000D4E80000E87648170000E40B5402000042
:10010000CA9A3B000000E1F50500008096980000C7
:100110000040420F000000A08601000000102700F0
:10012000000000E803000000006400000000000A76
:1001300000000000000100000000002C76D888DCE0
:10014000674F0823DFC1DFAE59E1B1B796E5E3E4BD
:1001500053C63AE651997696E8E6C28426EB898C36
:100160009B62ED407C6FFCEFBC9C9F40F2BAA56F98
:10017000A5F490055A2AF75C936B6CF9676DC11B67
:10018000FCE0E40D47FEF520E6B500D0ED902E032F
:1001900000943577050080841E080000204E0A0078
:1001A0000000C80C333333330F986E12831141EFC4
:1001B0008D2114893BE65516CFFEE6DB18D1844B22
:1001C000381BF77C1D901DA4BBE424203284725E92
:1001D000228100C9F124ECA1E53D270011241FBEB6
:1001E000CFEFD0E4DEBFCDBF11E0A0E0B1E0E4EAA4
:1001F000FAE100E00BBF02C007900D92A631B107F3
:10020000D9F711E0A6E1B1E001C01D92AA32B10711
:10021000E1F703D00C94500DF3CE88E091E00E94FA
:10022000200A80E090E008952F923F924F925F92D3
:100230006F927F928F929F92AF92BF92CF92DF92F6
:10024000EF92FF920F931F93CF93DF93CDB7DEB75B
:1002500062970FB6F894DEBF0FBECDBF7C011B01C5
:100260006A01FC0117821682838181FD03C06BC382
:10027000650105C088248394912C8C0E9D1EF70186
:100280009381F10193FD859193FF81911F01882353
:1002900009F455C3853239F493FD859193FF81911B
:1002A0001F01853231F4B70190E00E94A80C56017D
:1002B000DFCF712C612C20E02032A8F48B3261F06A
:1002C00028F4803251F0833271F40BC08D3239F052
:1002D000803349F4216028C02260246025C0286052
:1002E00023C0206121C027FD27C0382F30533A306A
:1002F00078F426FF06C0FAE07F9E300D1124732E9D
:1003000013C04AE0649E300D1124632E20620CC09D
:100310008E3221F426FD13C3206406C08C3611F4FE
:10032000206802C0883641F4F10193FD859193FF66
:1003300081911F018111C0CF982F9554933018F4EB
:100340002061805E06C0982F9556933008F0A4C1B6
:100350002F7E26FD02C016E0712EBFE35B2E5222D7
:10036000853619F4F0E45F2A07C0863619F440E8B0
:10037000542A02C071107A9457FE07C05BE35715E8
:1003800048F0472C439427E00DC087E0871530F0F4
:10039000272D07C027E0ACE34A2E04C027E0F7E092
:1003A0007F2E412C560194E0A90EB11CF60160810C
:1003B000718182819381042DA4010E945F0B8C01C5
:1003C00049814C8740FF02C043FF07C051FC08C071
:1003D00052FE09C0E0E2DE2E07C07DE2D72E04C047
:1003E0006BE2D62E01C0D12C8C858C70A1F1DD2062
:1003F00011F084E001C083E0861510F0612C0BC081
:10040000681A53FC08C0B70180E290E00E94A80C73
:100410006A94C9F7F3CFDD2029F0B7018D2D90E064
:100420000E94A80C5C8553FD03C000E910E00CC0DD
:100430000CE810E009C051108052B70190E00E9412
:10044000A80C0F5F1F4F02C080E15822F801849171
:100450008111F1CF71C257FE0EC0400E4C8544FF92
:1004600004C08A81813309F44A9414144CF558E08D
:10047000541548F12CC056FC2AC0872D90E08017F7
:10048000910744F00C3F8FEF180724F090E8592AA9
:1004900001C07A94772049F0E2E0F0E0EC0FFD1F14
:1004A000E70DF11D80818033A1F357FE10C0472C6A
:1004B0004394872D90E00817190744F4701A07C079
:1004C0004424439404C058E0452E01C0712C57FECB
:1004D00007C0101611063CF498012F5F3F4F05C06E
:1004E00025E030E002C021E030E0DD2011F02F5F98
:1004F0003F4F772031F0472D50E04F5F5F4F240F83
:10050000351F462D50E02417350714F4621A01C038
:10051000612C852D897049F406C0B70180E290E016
:100520000E94A80C6A946110F8CFDD2029F0B70171
:100530008D2D90E00E94A80C53FC09C006C0B701A5
:1005400080E390E00E94A80C6A946110F8CF57FEF7
:1005500056C0680117FF02C0C12CD12C20E030E04A
:10056000A801441951095E874D8728014C185D0880
:10057000480C591C872D90E044275527481B590BE0
:10058000588B4F875FEFC516D50649F4B7018EE249
:1005900090E02A8B398B0E94A80C39892A890C1586
:1005A0001D0554F04D855E854C155D052CF4F2015A
:1005B000E20FF31F818101C080E351E0C51AD10829
:1005C0002F5F3F4F4F855889C416D5064CF0B701B1
:1005D00090E02A8B398B0E94A80C2A893989D2CFC6
:1005E000C016D10649F49A81963328F4953321F444
:1005F0005C8554FD01C081E3B70190E04AC08A8167
:10060000813319F04C854F7E4C87B70190E00E94F2
:10061000A80C711005C054FE16C085E490E015C00A
:10062000B7018EE290E00E94A80C42E0D42EF401C3
:10063000ED0DF11DD394B701808190E00E94A80CCC
:100640007A94A9F7E8CF85E690E0B7010E94A80C5C
:1006500017FD06C00115110541F45C8554FF05C066
:100660001195019511098DE201C08BE2B70190E06F
:100670000E94A80C80E303C08F5F0A5011090A3062
:100680001105D4F7B70190E00E94A80CB701C8018A
:10069000C0960E94A80C50C1833631F0833781F098
:1006A000833509F05EC024C0560182E0A80EB11C5B
:1006B000F60180818983CC24C394D12C840114C099
:1006C0005601F2E0AF0EB11CF6010081118126FF48
:1006D00003C0672D70E002C06FEF7FEFC8012A8B67
:1006E0000E945D0C6C012A899FE7592E522217C087
:1006F0005601F2E0AF0EB11CF6010081118126FF18
:1007000003C0672D70E002C06FEF7FEFC8012A8B36
:100710000E94520C6C012A8980E8582E522A53FC00
:100720001CC006C0B70180E290E00E94A80C6A9449
:10073000862D90E0C816D906A8F30FC0F80157FC23
:10074000859157FE81918F01B70190E00E94A80C1E
:1007500061106A94F1E0CF1AD108C114D10471F785
:10076000EBC0843611F0893651F5560127FF09C0D8
:1007700044E0A40EB11CF6016081718182819381F5
:100780000AC0F2E0AF0EB11CF601608171818827CA
:1007900077FD8095982F122F1F7697FF08C09095B0
:1007A0008095709561957F4F8F4F9F4F10682AE01D
:1007B00030E0A4010E94EF0CD82ED81840C0122FB0
:1007C000853721F41F7E2AE030E01FC0197F8F3665
:1007D000A1F020F4883509F0B2C00BC0803721F0B9
:1007E000883709F0ACC001C0106114FF09C0146063
:1007F00007C024FF08C0166006C028E030E005C02E
:1008000020E130E002C020E132E0560117FF09C0CC
:10081000F4E0AF0EB11CF601608171818281938199
:1008200008C0F2E0AF0EB11CF6016081718180E07A
:1008300090E0A4010E94EF0CD82ED8181F7716FF65
:100840000BC0212F2E7FD71450F414FF0AC012FDC5
:1008500008C0212F2E7E05C00D2D212F03C00D2D88
:1008600001C0072D24FF0CC0FE01ED0DF11D80819C
:10087000803311F4297E08C022FF05C00E5F04C03A
:10088000822F867809F00F5F23FD14C020FF0FC070
:100890007D2C061560F4760C701A062D08C0B70181
:1008A00080E290E02A8B0E94A80C0F5F2A8906152F
:1008B000B0F304C0061510F4601A01C0612C24FFC7
:1008C00012C0B70180E390E02A8B0E94A80C2A890D
:1008D00022FF1EC021FF03C088E590E002C088E728
:1008E00090E0B7010CC0822F867891F021FD02C004
:1008F00080E201C08BE227FD8DE2B70190E00E940B
:10090000A80C06C0B70180E390E00E94A80C7A947E
:10091000D714C0F3DA94F401ED0DF11DB701808115
:1009200090E00E94A80CD110F5CF06C0B70180E27C
:1009300090E00E94A80C6A946110F8CF99CCF7015E
:100940002681378102C02FEF3FEFC90162960FB6B3
:10095000F894DEBF0FBECDBFDF91CF911F910F91F5
:10096000FF90EF90DF90CF90BF90AF909F908F90CF
:100970007F906F905F904F903F902F90089520FD53
:1009800009C0FC0123FD05C022FF02C073836283FE
:10099000518340830895CF92DF92EF92FF920F939D
:1009A0001F9344FD10C046FD10C0DB01FC01AA0FDF
:1009B000BB1FEE1FFF1F1094D1F76A0F7B1F8E1F06
:1009C0009F1F31E003C033E001C034E0660F771FA2
:1009D000881F991F3150D1F76B017C01C20ED11CC9
:1009E000E11CF11C97018601B601C9011F910F910D
:1009F000FF90EF90DF90CF9008950F931F93CF93C8
:100A0000DF938C01C80164D7EC0197FD06C02FD796
:100A1000892BC1F7B801CE01C7D7CE01DF91CF91A5
:100A20001F910F9108956F927F929F92AF92BF9204
:100A3000CF92DF92EF92FF920F931F93CF93DF93AA
:100A40001F92CDB7DEB78C013B015A01298340D7F5
:100A5000AC01552729814B32510521F04D3251050A
:100A600069F4206881E0681A710811F480E06BC0B5
:100A7000C80129832DD7298197FDF8CF5DEF952EE9
:100A80009222322F307319F5803309F5E1E06E1AA6
:100A9000710809F445C0C80129831AD7298197FD37
:100AA0003FC0883711F0883559F4F2E49F2A21E0DD
:100AB000621A7108A9F1C8010BD797FF08C030C0AE
:100AC00026FF03C0E2E09E2A02C0F2E19F2AC12C69
:100AD000D12C7601282F2053283078F094FE03C0C3
:100AE000B80162D71AC02A3040F096FEF9CF2F7DA8
:100AF000322F31513630A0F72750492DC701B601AA
:100B00004ADF6B017C0122E0922A81E0681A7108B9
:100B100051F0C801DDD697FFDDCF91FC04C0A6CF10
:100B2000C12CD12C760197FE08C0F094E094D094AB
:100B3000C094C11CD11CE11CF11C292DB701A601D8
:100B4000C5011DDF81E00F90DF91CF911F910F91C3
:100B5000FF90EF90DF90CF90BF90AF909F907F90ED
:100B60006F9008956F927F928F929F92AF92BF92F3
:100B7000CF92DF92EF92FF920F931F93CF93DF9369
:100B8000CDB7DEB7A0970FB6F894DEBF0FBECDBFCE
:100B90006C015B017A018901FE01319680E2DF017F
:100BA0001D928A95E9F7D60113968C9020E030E0EB
:100BB000912C712CB0E0CF0141E050E0F80183FCB2
:100BC000A59183FEA1918F01A11103C000E010E067
:100BD0007DC0AE3519F42115310551F16B2F70E050
:100BE000621773073CF4AD3561F1AD3219F477202B
:100BF00009F103C0711001C09A2E6A2F669566959F
:100C00006695FC01E60FF11D6A2F67703A0102C07C
:100C1000660C771C6A95E2F7B3017081762B7083BE
:100C2000A91559F0A91510F4AF5FE7CFA150E5CF92
:100C3000B1E004C07724739401C0712C2F5F3F4F43
:100C4000BDCF772019F08E8180628E83B11103C0F1
:100C5000992493940BC0FE013196CE018196208198
:100C600020952193E817F907D1F7F2CFC60130D6C6
:100C700097FD25C0282F269526952695E1E0F0E0E2
:100C8000EC0FFD1FE20FF11D208130E0AC01477039
:100C9000552702C0359527954A95E2F720FD03C0F8
:100CA000B60182D60CC0E114F10419F0D7018D937E
:100CB0007D01B1E0AB1AB108912CC1F602C09110D0
:100CC00085CFE114F10411F0F7011082C801A0965C
:100CD0000FB6F894DEBF0FBECDBFDF91CF911F914D
:100CE0000F91FF90EF90DF90CF90BF90AF909F90CB
:100CF0008F907F906F9008952F923F924F925F92C6
:100D00006F927F929F92AF92BF92CF92DF92EF92BB
:100D1000FF920F931F93CF93DF9300D000D000D0AA
:100D2000CDB7DEB75C018B016A01D2D57C01992772
:100D30008B32910519F08D9781F402C0912C02C07D
:100D400030E8932E0150110911F480E027C1C5014C
:100D5000BFD57C0197FF02C0F8CF912CC7018FD57A
:100D60008936910521F18E36910509F037C01AC0F8
:100D70000150110959F0C501ABD57C0197FD06C0A2
:100D80007ED57816C1F0B501C7010ED689EA48169E
:100D900080E05806D1F6412C512C20E8622E2FE736
:100DA000722EEDC09EEA492E90E0592E04C086EACC
:100DB000482E80E0582EF2019FEF491A590A74908C
:100DC0007110D6CFE1EB4E16E0E05E0621F7412C24
:100DD000512CB0EC6B2EBFE77B2ED1C0212C312CD7
:100DE00021011E821D822E2D20532A3030F5A2E0D3
:100DF0007A2E7928892D887092FE08C0811124C02E
:100E00008D819E8101969E838D831EC0882329F04B
:100E1000ED81FE813197FE83ED8340E2C201B10195
:100E2000BADD1B012C016839F9E97F078F07F9E169
:100E30009F0750F0F6E07F2E06C02E3F81F493FC12
:100E40000EC0E8E07E2E79280150110939F0C50165
:100E50003FD57C01972C97FFC6CF01C0972C91FE00
:100E600074CF8E2D853619F0853409F046C00150B7
:100E7000110909F46ACFC5012BD57C0197FD65CF17
:100E800099278B32910521F08D9749F480E1982ABA
:100E90000150110909F459CFC5011AD57C01C701C8
:100EA000C0970A9708F051CF612C712C2E2D20533A
:100EB000B301882777FD8095982F40E26CDDAB0168
:100EC000BC013A010150110961F0C50149835A83FF
:100ED0006B837C83FDD47C01C09749815A810A973A
:100EE00028F394FE04C066247724641A750AED8101
:100EF000FE81E60DF71DFE83ED83012B29F0F7FC43
:100F000003C0B501C70150D5C201B101E7D22B0121
:100F10003C018D819E8197FF08C091958195910933
:100F20009E838D830DED10E002C005EC10E05801AA
:100F300098E1A91AB10870E2E72EF12C14C0F8016B
:100F400085919591A591B491282F392F4A2F5B2F28
:100F5000C301B20100D32B013C01ED81FE81EE19EA
:100F6000FF09FE83ED838D819E818E159F0538F7E5
:100F700004501109F694E7940A151B05A1F797FE92
:100F800004C077FA709477F87094C114D10429F0F2
:100F9000F601408251826282738281E026960FB60A
:100FA000F894DEBF0FBECDBFDF91CF911F910F919F
:100FB000FF90EF90DF90CF90BF90AF909F907F9089
:100FC0006F905F904F903F902F9008954F925F9257
:100FD0006F927F928F929F92AF92BF92CF92DF9249
:100FE000EF92FF920F931F93CF93DF931F92CDB792
:100FF000DEB78C012B017A01FC0117821682A12C2D
:10100000F6C08C2D90E033D4892B19F0C801F5DCA3
:10101000EEC0F5E2CF120AC0F201D3FC3591D3FE47
:1010200031912F01353261F455E2C52EC80150D4FB
:1010300097FDE8C0C81609F4DAC0B801B5D4E4C019
:101040003A3241F4D3FC3591D3FE31912F01BB24C8
:10105000B39401C0B12C812C912C0EC0F2E0BF2AB8
:10106000B40180E090E040E296DC4B01F201D3FC59
:101070003591D3FE31912F01232F20532A3070F365
:10108000B1FE04C08114910421F4BEC088248A9466
:10109000982C383619F03C3699F40AC0F201D3FC8A
:1010A0003591D3FE31912F01383651F4F8E0BF2A43
:1010B00084E0B82AF201D3FC3591D3FE31912F019F
:1010C000332309F4A1C0632F70E084E990E03983F1
:1010D000DED33981892B09F497C0B0FC07C0F70132
:1010E000C080D18082E0E80EF11C02C0C12CD12C5E
:1010F0003E3649F4F8014681578160E070E02B2DBF
:10110000C6013DDC74C03336A1F4B1FC03C08824B1
:101110008394912CC801DCD397FD74C0C114D10411
:1011200019F0F60181936F01F1E08F1A910891F7A0
:101130005CC03B3551F49201A601B401C80112DD37
:101140002C01009709F051C04BC0C801398355DC10
:10115000398197FD57C03F36A9F138F4343679F11B
:10116000393691F13835B1F527C0333749F018F4E5
:10117000303781F521C0353711F1383759F51CC0AA
:10118000C801A6D33C0197FD11C071D3892B21F072
:10119000B801C30109D40AC0C114D10419F0F60181
:1011A00061926F01F1E08F1A910851F7C114D104D7
:1011B000E1F0F601108219C0F0E4BF2A05C080E218
:1011C000B82A02C090E1B92A2B2DA601B401C801AA
:1011D0002ADC04C0A601B401C8018EDD811105C05E
:1011E000F8018381807371F40FC0B0FEA394F801FD
:1011F000D380F201D3FCC590D3FEC1902F01C11062
:1012000000CF02C0AA2019F02A2D30E002C02FEF33
:101210003FEFC9010F90DF91CF911F910F91FF9088
:10122000EF90DF90CF90BF90AF909F908F907F9086
:101230006F905F904F900895EF92FF920F931F93DE
:1012400067B13D982898299AE0901A01F0901B0107
:1012500000911C0110911D0120E030E041E050E0C0
:10126000CA016F9364E06A95F1F76F910197C9F72E
:101270002A9ACA016F9364E06A95F1F76F9101971A
:10128000C9F786B12A98FA016F9364E06A95F1F77D
:101290006F913197C9F72A9AFA016F9364E06A95C2
:1012A000F1F76F913197C9F72A982C5F3F4F85FF6F
:1012B00009C0C901A0E0B0E08E159F05A007B107E5
:1012C00008F4CECFC901A0E0B0E08E159F05A007BD
:1012D000B10728F082E390E0A0E0B0E004C080E332
:1012E00095E7A0E0B0E080931A0190931B01A093D2
:1012F0001C01B0931D0167B91F910F91FF90EF90F2
:1013000008953D98459A80E395E7A0E0B0E080938A
:101310001A0190931B01A0931C01B0931D01209A08
:10132000219A229A8EE190E0CAD083E08BD086E0A9
:1013300090E0C5D083E086D082E090E0C0D083E02A
:1013400081D082E090E0BBD082E07CD082E090E06F
:10135000B6D088E263D088E061D081E05FD086E0DB
:101360005DD08CE05BC080911E01882321F481E078
:1013700080931E01C6CF0895FF920F931F93082FED
:10138000162FF42EF0DF58DF37B128B1299811233A
:1013900011F0289A01C0289887B18C6387B981E041
:1013A000F816E1F088B1902F92959F70990F990FE0
:1013B000837C982B98B92A9A81E090E0FC016F9386
:1013C00064E06A95F1F76F913197C9F72A986F93A6
:1013D00064E06A95F1F76F910197C9F788B10F70D2
:1013E000000F000F837C802B88B92A9A81E090E05F
:1013F000FC016F9364E06A95F1F76F913197C9F73B
:101400002A986F9364E06A95F1F76F910197C9F795
:1014100037B928B91F910F91FF90089560E042E01D
:10142000ABCF61E042E0A8CFCF93DF93EC0102C0E5
:101430002196F7DF88818823D9F7DF91CF9108952E
:10144000F3CF089560E041E097CF2F928F939F9361
:101450002FB6809120019091210101968093200167
:101460009093210190E080912201891F80932201B5
:10147000909128019C5F90932801809127018051D1
:101480009742C0F090932801809327018091230117
:10149000909124010196809323019093240190E080
:1014A00080912501891F8093250180912601891F44
:1014B000809326012FBE9F918F912F90189528EE33
:1014C00033E009C0F9016F9364E06A95F1F76F9119
:1014D0003197C9F701970097A9F70895E89409C0D3
:1014E00097FB3EF490958095709561957F4F8F4F57
:1014F0009F4F9923A9F0F92F96E9BB279395F6956D
:10150000879577956795B795F111F8CFFAF4BB0FEA
:1015100011F460FF1BC06F5F7F4F8F4F9F4F16C04E
:10152000882311F096E911C0772321F09EE8872FD8
:10153000762F05C0662371F096E8862F70E060E094
:101540002AF09A95660F771F881FDAF7880F96950D
:10155000879597F908950BD078C069D028F06ED0A0
:1015600018F0952309F05AC05FC01124A2C07ED0A4
:10157000A0F3959FD1F3950F50E0551F629FF001A6
:10158000729FBB27F00DB11D639FAA27F00DB11DFF
:10159000AA1F649F6627B00DA11D661F829F222788
:1015A000B00DA11D621F739FB00DA11D621F839F0F
:1015B000A00D611D221F749F3327A00D611D231FE5
:1015C000849F600D211D822F762F6A2F11249F5733
:1015D00050408AF0E1F088234AF0EE0FFF1FBB1F56
:1015E000661F771F881F91505040A9F79E3F5105F5
:1015F00070F014C05EC05F3FECF3983EDCF386955C
:1016000077956795B795F795E7959F5FC1F7FE2B9F
:10161000880F911D9695879597F9089597F99F677B
:1016200080E870E060E008959FEF80EC089500246A
:101630000A941616170618060906089500240A9437
:1016400012161306140605060895092E0394000CBD
:1016500011F4882352F0BB0F40F4BF2B11F460FF4C
:1016600004C06F5F7F4F8F4F9F4F089557FD905875
:10167000440F551F59F05F3F71F04795880F97FB56
:10168000991F61F09F3F79F0879508951216130610
:101690001406551FF2CF4695F1DF08C0161617063F
:1016A0001806991FF1CF8695710561050894089574
:1016B000E894BB2766277727CB0197F90895283050
:1016C00008F027E03327DA01990F311D87FD91607B
:1016D00000966105710539F432602E5F3D9330E369
:1016E0002A95E1F708959F3F30F080387105610534
:1016F00009F03C5F3C5F3D93913008F08068911D9C
:10170000DF93CF931F930F93FF92EF92192F987F40
:101710009695E92F96959695E90FFF27E55CFE4F84
:1017200099273327EE24FF24A701E70105900894A9
:10173000079428F4360FE71EF81E491F511D660F47
:10174000771F881F991F0694A1F70590079428F426
:10175000E70EF81E491F561FC11D770F881F991FDE
:10176000661F0694A1F70590079428F4F80E491F08
:10177000561FC71FD11D880F991F661F771F06941C
:10178000A1F70590079420F4490F561FC71FD81FD3
:10179000990F661F771F881F0694A9F784911095EB
:1017A000177041F0D695C79557954795F794E794EC
:1017B0001A95C1F7E1EEF0E0689415901591359116
:1017C0006591959105907FE27395E118F10A430BBD
:1017D000560BC90BD009C0F7E10CF11E431F561F71
:1017E000C91FD01D7EF4703311F48A95E6CFE894BA
:1017F000015030F0080F0AF40027021708F4202FD8
:101800002395022F7A3328F079E37D932A95E9F71F
:1018100010C07D932A9589F606949795679537951C
:1018200017951794E118F10A430B560BC90BD00911
:1018300098F023957E9173957A3308F070E37C934A
:101840002013B8F77E9170617D9330F0839571E33A
:101850007D9370E32A95E1F71124EF90FF900F91AB
:101860001F91CF91DF91992787FD90950895911150
:1018700014C1803219F089508550D0F70895911124
:10188000089581548A5108F4805E855A0895FC01B8
:101890000590061621F00020D9F7C0010895319770
:1018A000CF010895FC010590615070400110D8F7F8
:1018B000809590958E0F9F1F0895FC016150704098
:1018C00001900110D8F7809590958E0F9F1F089575
:1018D000CF93DF93EC013B8130FF34C036FF0AC069
:1018E0003F7B3B838E819F8101969F838E832A81DC
:1018F00030E02AC032FF0FC0E881F981808199274A
:1019000087FD9095009719F430623B831BC0319698
:10191000F983E8830EC0EA85FB85099597FF09C026
:101920002B81019611F480E101C080E2822B8B8330
:1019300009C02E813F812F5F3F4F3F832E839C0143
:10194000332702C02FEF3FEFC901DF91CF910895F8
:101950000F931F93CF93DF938C01EB018B8181FD5C
:1019600003C00FEF1FEF1AC082FF0DC02E813F8111
:101970008C819D812817390764F4E881F9810193EE
:10198000F983E88306C0E885F985802F0995892BBE
:1019900041F78E819F8101969F838E83C801DF91DD
:1019A000CF911F910F910895FB01238120FF13C058
:1019B00026FD11C08F3F3FEF930769F082832F7D93
:1019C0002064238326813781215031093783268380
:1019D0009C01332702C02FEF3FEFC9010895FA01A0
:1019E000AA27283051F1203181F1E8946F936E7F5E
:1019F0006E5F7F4F8F4F9F4FAF4FB1E03ED0B4E04F
:101A00003CD0670F781F891F9A1FA11D680F791F8F
:101A10008A1F911DA11D6A0F711D811D911DA11DA0
:101A200020D009F468943F912AE0269F11243019B0
:101A3000305D3193DEF6CF010895462F4770405D4B
:101A40004193B3E00FD0C9F7F6CF462F4F70405DFA
:101A50004A3318F0495D31FD4052419302D0A9F755
:101A6000EACFB4E0A6959795879577956795BA954F
:101A7000C9F700976105710508959B01AC010A2E15
:101A800006945795479537952795BA95C9F7620FEC
:101A9000731F841F951FA01D0895992788270895F7
:041AA000F894FFCFE8
:101AA400021000002A01200068656C6C6F20776FBB
:061AB400726C64210000C9
:00000001FF
